{
  "_format": "hh-sol-artifact-1",
  "contractName": "DLottery",
  "sourceName": "contracts/dLottery.sol",
  "abi": [
    {
      "inputs": [
        {
          "internalType": "address",
          "name": "vrfCoordinator",
          "type": "address"
        },
        {
          "internalType": "uint256",
          "name": "entranceFee",
          "type": "uint256"
        },
        {
          "internalType": "bytes32",
          "name": "gasLane",
          "type": "bytes32"
        },
        {
          "internalType": "uint64",
          "name": "subscriptionId",
          "type": "uint64"
        },
        {
          "internalType": "uint32",
          "name": "callbackGasLimit",
          "type": "uint32"
        },
        {
          "internalType": "uint256",
          "name": "interval",
          "type": "uint256"
        }
      ],
      "stateMutability": "nonpayable",
      "type": "constructor"
    },
    {
      "inputs": [],
      "name": "DLottery__NotEnoughEth",
      "type": "error"
    },
    {
      "inputs": [],
      "name": "DLottery__UpkeepNotNeeded",
      "type": "error"
    },
    {
      "inputs": [],
      "name": "DLottery__WinnerTransferFailed",
      "type": "error"
    },
    {
      "inputs": [
        {
          "internalType": "address",
          "name": "have",
          "type": "address"
        },
        {
          "internalType": "address",
          "name": "want",
          "type": "address"
        }
      ],
      "name": "OnlyCoordinatorCanFulfill",
      "type": "error"
    },
    {
      "anonymous": false,
      "inputs": [
        {
          "indexed": true,
          "internalType": "address",
          "name": "player",
          "type": "address"
        }
      ],
      "name": "LotteryEntered",
      "type": "event"
    },
    {
      "anonymous": false,
      "inputs": [
        {
          "indexed": true,
          "internalType": "uint256",
          "name": "requestId",
          "type": "uint256"
        }
      ],
      "name": "RequestLotterWinner",
      "type": "event"
    },
    {
      "anonymous": false,
      "inputs": [
        {
          "indexed": false,
          "internalType": "address",
          "name": "recentWinner",
          "type": "address"
        }
      ],
      "name": "WinnerPicked",
      "type": "event"
    },
    {
      "inputs": [
        {
          "internalType": "bytes",
          "name": "",
          "type": "bytes"
        }
      ],
      "name": "checkUpkeep",
      "outputs": [
        {
          "internalType": "bool",
          "name": "upkeepNeeded",
          "type": "bool"
        },
        {
          "internalType": "bytes",
          "name": "",
          "type": "bytes"
        }
      ],
      "stateMutability": "nonpayable",
      "type": "function"
    },
    {
      "inputs": [],
      "name": "enterInLottery",
      "outputs": [],
      "stateMutability": "payable",
      "type": "function"
    },
    {
      "inputs": [],
      "name": "getInterval",
      "outputs": [
        {
          "internalType": "uint256",
          "name": "",
          "type": "uint256"
        }
      ],
      "stateMutability": "view",
      "type": "function"
    },
    {
      "inputs": [],
      "name": "getLotteryState",
      "outputs": [
        {
          "internalType": "enum DLottery.LotteryState",
          "name": "",
          "type": "uint8"
        }
      ],
      "stateMutability": "view",
      "type": "function"
    },
    {
      "inputs": [],
      "name": "getNumWords",
      "outputs": [
        {
          "internalType": "uint256",
          "name": "",
          "type": "uint256"
        }
      ],
      "stateMutability": "pure",
      "type": "function"
    },
    {
      "inputs": [
        {
          "internalType": "uint256",
          "name": "index",
          "type": "uint256"
        }
      ],
      "name": "getPlayer",
      "outputs": [
        {
          "internalType": "address",
          "name": "",
          "type": "address"
        }
      ],
      "stateMutability": "view",
      "type": "function"
    },
    {
      "inputs": [
        {
          "internalType": "bytes",
          "name": "",
          "type": "bytes"
        }
      ],
      "name": "performUpkeep",
      "outputs": [],
      "stateMutability": "nonpayable",
      "type": "function"
    },
    {
      "inputs": [
        {
          "internalType": "uint256",
          "name": "requestId",
          "type": "uint256"
        },
        {
          "internalType": "uint256[]",
          "name": "randomWords",
          "type": "uint256[]"
        }
      ],
      "name": "rawFulfillRandomWords",
      "outputs": [],
      "stateMutability": "nonpayable",
      "type": "function"
    }
  ],
  "bytecode": "0x6101606040526000600360006101000a81548160ff021916908360018111156200002e576200002d620002ae565b5b02179055503480156200004057600080fd5b5060405162001672380380620016728339818101604052810190620000669190620001a6565b858073ffffffffffffffffffffffffffffffffffffffff1660808173ffffffffffffffffffffffffffffffffffffffff1660601b81525050508460a081815250508573ffffffffffffffffffffffffffffffffffffffff1660c08173ffffffffffffffffffffffffffffffffffffffff1660601b815250508360e081815250508267ffffffffffffffff166101008167ffffffffffffffff1660c01b815250508163ffffffff166101208163ffffffff1660e01b8152505080610140818152505050505050505062000364565b6000815190506200014481620002e2565b92915050565b6000815190506200015b81620002fc565b92915050565b600081519050620001728162000316565b92915050565b600081519050620001898162000330565b92915050565b600081519050620001a0816200034a565b92915050565b60008060008060008060c08789031215620001c657620001c5620002dd565b5b6000620001d689828a0162000133565b9650506020620001e989828a0162000161565b9550506040620001fc89828a016200014a565b94505060606200020f89828a016200018f565b93505060806200022289828a0162000178565b92505060a06200023589828a0162000161565b9150509295509295509295565b60006200024f8262000260565b9050919050565b6000819050919050565b600073ffffffffffffffffffffffffffffffffffffffff82169050919050565b6000819050919050565b600063ffffffff82169050919050565b600067ffffffffffffffff82169050919050565b7f4e487b7100000000000000000000000000000000000000000000000000000000600052602160045260246000fd5b600080fd5b620002ed8162000242565b8114620002f957600080fd5b50565b620003078162000256565b81146200031357600080fd5b50565b620003218162000280565b81146200032d57600080fd5b50565b6200033b816200028a565b81146200034757600080fd5b50565b62000355816200029a565b81146200036157600080fd5b50565b60805160601c60a05160c05160601c60e0516101005160c01c6101205160e01c61014051611299620003d96000396000818161047601526104d1015260006105e8015260006105c5015260006105a4015260006105680152600061029a0152600081816101da015261022e01526112996000f3fe60806040526004361061007b5760003560e01c80636b68c03c1161004e5780636b68c03c146101075780636e04ff0d1461013257806391ad27b414610170578063e55ae4e81461019b5761007b565b80631fe543e31461008057806333592fef146100a95780634585e33b146100b357806353a2c19a146100dc575b600080fd5b34801561008c57600080fd5b506100a760048036038101906100a29190610c4f565b6101d8565b005b6100b1610298565b005b3480156100bf57600080fd5b506100da60048036038101906100d59190610b5f565b61039a565b005b3480156100e857600080fd5b506100f16103fb565b6040516100fe9190610ea0565b60405180910390f35b34801561011357600080fd5b5061011c61040a565b6040516101299190610e85565b60405180910390f35b34801561013e57600080fd5b5061015960048036038101906101549190610bac565b610421565b604051610167929190610e02565b60405180910390f35b34801561017c57600080fd5b506101856104cd565b6040516101929190610ea0565b60405180910390f35b3480156101a757600080fd5b506101c260048036038101906101bd9190610bf5565b6104f5565b6040516101cf9190610da3565b60405180910390f35b7f000000000000000000000000000000000000000000000000000000000000000073ffffffffffffffffffffffffffffffffffffffff163373ffffffffffffffffffffffffffffffffffffffff161461028a57337f00000000000000000000000000000000000000000000000000000000000000006040517f1cf993f4000000000000000000000000000000000000000000000000000000008152600401610281929190610dd9565b60405180910390fd5b610294828261053c565b5050565b7f00000000000000000000000000000000000000000000000000000000000000003410156102f2576040517f428067d800000000000000000000000000000000000000000000000000000000815260040160405180910390fd5b6000339080600181540180825580915050600190039060005260206000200160009091909190916101000a81548173ffffffffffffffffffffffffffffffffffffffff021916908373ffffffffffffffffffffffffffffffffffffffff1602179055503373ffffffffffffffffffffffffffffffffffffffff167f4c72b57c1ca715219cf2c7be9edc8a3ea19dfb9a76fb7a05e2a8062a027ee97060405160405180910390a2565b60006103b460405180602001604052806000815250610421565b509050806103ee576040517f5e674dba00000000000000000000000000000000000000000000000000000000815260040160405180910390fd5b6103f6610564565b505050565b6000600363ffffffff16905090565b6000600360009054906101000a900460ff16905090565b60006060600080600181111561043a57610439611179565b5b600360009054906101000a900460ff16600181111561045c5761045b611179565b5b1490506000806000805490501190506000804711905060007f0000000000000000000000000000000000000000000000000000000000000000600254426104a39190610f64565b1190508380156104b05750825b80156104b95750815b80156104c25750805b955050505050915091565b60007f0000000000000000000000000000000000000000000000000000000000000000905090565b600080828154811061050a576105096111a8565b5b9060005260206000200160009054906101000a900473ffffffffffffffffffffffffffffffffffffffff169050919050565b61056081600081518110610553576105526111a8565b5b60200260200101516106ad565b5050565b60007f000000000000000000000000000000000000000000000000000000000000000073ffffffffffffffffffffffffffffffffffffffff16635d3b1d307f00000000000000000000000000000000000000000000000000000000000000007f000000000000000000000000000000000000000000000000000000000000000060037f000000000000000000000000000000000000000000000000000000000000000060036040518663ffffffff1660e01b8152600401610629959493929190610e32565b602060405180830381600087803b15801561064357600080fd5b505af1158015610657573d6000803e3d6000fd5b505050506040513d601f19601f8201168201806040525081019061067b9190610c22565b9050807f5d09b6924be1682a9a4c201bc3dfb755cd08ec2ec368a81877382246f4a1eb9160405160405180910390a250565b6001600360006101000a81548160ff021916908360018111156106d3576106d2611179565b5b021790555060008080549050826106ea91906110ea565b905060008181548110610700576106ff6111a8565b5b9060005260206000200160009054906101000a900473ffffffffffffffffffffffffffffffffffffffff16600160006101000a81548173ffffffffffffffffffffffffffffffffffffffff021916908373ffffffffffffffffffffffffffffffffffffffff1602179055506000600160009054906101000a900473ffffffffffffffffffffffffffffffffffffffff1673ffffffffffffffffffffffffffffffffffffffff16476040516107b390610d8e565b60006040518083038185875af1925050503d80600081146107f0576040519150601f19603f3d011682016040523d82523d6000602084013e6107f5565b606091505b50509050610801610896565b80610838576040517fdb673f4b00000000000000000000000000000000000000000000000000000000815260040160405180910390fd5b7f5b690ec4a06fe979403046eaeea5b3ce38524683c3001f662c8b5a829632f7df600160009054906101000a900473ffffffffffffffffffffffffffffffffffffffff166040516108899190610dbe565b60405180910390a1505050565b6000600360006101000a81548160ff021916908360018111156108bc576108bb611179565b5b0217905550600067ffffffffffffffff8111156108dc576108db6111d7565b5b60405190808252806020026020018201604052801561090a5781602001602082028036833780820191505090505b506000908051906020019061092092919061092a565b5042600281905550565b8280548282559060005260206000209081019282156109a3579160200282015b828111156109a25782518260006101000a81548173ffffffffffffffffffffffffffffffffffffffff021916908373ffffffffffffffffffffffffffffffffffffffff1602179055509160200191906001019061094a565b5b5090506109b091906109b4565b5090565b5b808211156109cd5760008160009055506001016109b5565b5090565b60006109e46109df84610ee0565b610ebb565b90508083825260208201905082856020860282011115610a0757610a06611210565b5b60005b85811015610a375781610a1d8882610b35565b845260208401935060208301925050600181019050610a0a565b5050509392505050565b6000610a54610a4f84610f0c565b610ebb565b905082815260208101848484011115610a7057610a6f611215565b5b610a7b848285611077565b509392505050565b600082601f830112610a9857610a9761120b565b5b8135610aa88482602086016109d1565b91505092915050565b60008083601f840112610ac757610ac661120b565b5b8235905067ffffffffffffffff811115610ae457610ae3611206565b5b602083019150836001820283011115610b0057610aff611210565b5b9250929050565b600082601f830112610b1c57610b1b61120b565b5b8135610b2c848260208601610a41565b91505092915050565b600081359050610b448161124c565b92915050565b600081519050610b598161124c565b92915050565b60008060208385031215610b7657610b7561121f565b5b600083013567ffffffffffffffff811115610b9457610b9361121a565b5b610ba085828601610ab1565b92509250509250929050565b600060208284031215610bc257610bc161121f565b5b600082013567ffffffffffffffff811115610be057610bdf61121a565b5b610bec84828501610b07565b91505092915050565b600060208284031215610c0b57610c0a61121f565b5b6000610c1984828501610b35565b91505092915050565b600060208284031215610c3857610c3761121f565b5b6000610c4684828501610b4a565b91505092915050565b60008060408385031215610c6657610c6561121f565b5b6000610c7485828601610b35565b925050602083013567ffffffffffffffff811115610c9557610c9461121a565b5b610ca185828601610a83565b9150509250929050565b610cb48161102f565b82525050565b610cc381610f98565b82525050565b610cd281610faa565b82525050565b610ce181610fb6565b82525050565b6000610cf282610f3d565b610cfc8185610f48565b9350610d0c818560208601611086565b610d1581611224565b840191505092915050565b610d2981611041565b82525050565b6000610d3c600083610f59565b9150610d4782611235565b600082019050919050565b610d5b81610fd3565b82525050565b610d6a81611001565b82525050565b610d798161100b565b82525050565b610d888161101b565b82525050565b6000610d9982610d2f565b9150819050919050565b6000602082019050610db86000830184610cba565b92915050565b6000602082019050610dd36000830184610cab565b92915050565b6000604082019050610dee6000830185610cba565b610dfb6020830184610cba565b9392505050565b6000604082019050610e176000830185610cc9565b8181036020830152610e298184610ce7565b90509392505050565b600060a082019050610e476000830188610cd8565b610e546020830187610d7f565b610e616040830186610d52565b610e6e6060830185610d70565b610e7b6080830184610d70565b9695505050505050565b6000602082019050610e9a6000830184610d20565b92915050565b6000602082019050610eb56000830184610d61565b92915050565b6000610ec5610ed6565b9050610ed182826110b9565b919050565b6000604051905090565b600067ffffffffffffffff821115610efb57610efa6111d7565b5b602082029050602081019050919050565b600067ffffffffffffffff821115610f2757610f266111d7565b5b610f3082611224565b9050602081019050919050565b600081519050919050565b600082825260208201905092915050565b600081905092915050565b6000610f6f82611001565b9150610f7a83611001565b925082821015610f8d57610f8c61111b565b5b828203905092915050565b6000610fa382610fe1565b9050919050565b60008115159050919050565b6000819050919050565b6000819050610fce82611238565b919050565b600061ffff82169050919050565b600073ffffffffffffffffffffffffffffffffffffffff82169050919050565b6000819050919050565b600063ffffffff82169050919050565b600067ffffffffffffffff82169050919050565b600061103a82611053565b9050919050565b600061104c82610fc0565b9050919050565b600061105e82611065565b9050919050565b600061107082610fe1565b9050919050565b82818337600083830152505050565b60005b838110156110a4578082015181840152602081019050611089565b838111156110b3576000848401525b50505050565b6110c282611224565b810181811067ffffffffffffffff821117156110e1576110e06111d7565b5b80604052505050565b60006110f582611001565b915061110083611001565b9250826111105761110f61114a565b5b828206905092915050565b7f4e487b7100000000000000000000000000000000000000000000000000000000600052601160045260246000fd5b7f4e487b7100000000000000000000000000000000000000000000000000000000600052601260045260246000fd5b7f4e487b7100000000000000000000000000000000000000000000000000000000600052602160045260246000fd5b7f4e487b7100000000000000000000000000000000000000000000000000000000600052603260045260246000fd5b7f4e487b7100000000000000000000000000000000000000000000000000000000600052604160045260246000fd5b600080fd5b600080fd5b600080fd5b600080fd5b600080fd5b600080fd5b6000601f19601f8301169050919050565b50565b6002811061124957611248611179565b5b50565b61125581611001565b811461126057600080fd5b5056fea26469706673582212208a14185f21acbe35700f3e36312ebcc3b830450ddbc3d6d38541900cb7c340ea64736f6c63430008070033",
  "linkReferences": {},
  "deployedLinkReferences": {}
}