{
  "_format": "hh-sol-artifact-1",
  "contractName": "DLottery",
  "sourceName": "contracts/dLottery.sol",
  "abi": [
    {
      "inputs": [
        {
          "internalType": "address",
          "name": "vrfCoordinator",
          "type": "address"
        },
        {
          "internalType": "uint256",
          "name": "entranceFee",
          "type": "uint256"
        },
        {
          "internalType": "bytes32",
          "name": "gasLane",
          "type": "bytes32"
        },
        {
          "internalType": "uint64",
          "name": "subscriptionId",
          "type": "uint64"
        },
        {
          "internalType": "uint32",
          "name": "callbackGasLimit",
          "type": "uint32"
        },
        {
          "internalType": "uint256",
          "name": "interval",
          "type": "uint256"
        }
      ],
      "stateMutability": "nonpayable",
      "type": "constructor"
    },
    {
      "inputs": [],
      "name": "DLottery__LotteryIsInProcess",
      "type": "error"
    },
    {
      "inputs": [],
      "name": "DLottery__NotEnoughEth",
      "type": "error"
    },
    {
      "inputs": [],
      "name": "DLottery__UpkeepNotNeeded",
      "type": "error"
    },
    {
      "inputs": [],
      "name": "DLottery__WinnerTransferFailed",
      "type": "error"
    },
    {
      "inputs": [
        {
          "internalType": "address",
          "name": "have",
          "type": "address"
        },
        {
          "internalType": "address",
          "name": "want",
          "type": "address"
        }
      ],
      "name": "OnlyCoordinatorCanFulfill",
      "type": "error"
    },
    {
      "anonymous": false,
      "inputs": [
        {
          "indexed": true,
          "internalType": "address",
          "name": "player",
          "type": "address"
        }
      ],
      "name": "LotteryEntered",
      "type": "event"
    },
    {
      "anonymous": false,
      "inputs": [
        {
          "indexed": true,
          "internalType": "uint256",
          "name": "requestId",
          "type": "uint256"
        }
      ],
      "name": "RequestLotterWinner",
      "type": "event"
    },
    {
      "anonymous": false,
      "inputs": [
        {
          "indexed": false,
          "internalType": "address",
          "name": "recentWinner",
          "type": "address"
        }
      ],
      "name": "WinnerPicked",
      "type": "event"
    },
    {
      "inputs": [
        {
          "internalType": "bytes",
          "name": "",
          "type": "bytes"
        }
      ],
      "name": "checkUpkeep",
      "outputs": [
        {
          "internalType": "bool",
          "name": "upkeepNeeded",
          "type": "bool"
        },
        {
          "internalType": "bytes",
          "name": "",
          "type": "bytes"
        }
      ],
      "stateMutability": "nonpayable",
      "type": "function"
    },
    {
      "inputs": [],
      "name": "enterInLottery",
      "outputs": [],
      "stateMutability": "payable",
      "type": "function"
    },
    {
      "inputs": [],
      "name": "getInterval",
      "outputs": [
        {
          "internalType": "uint256",
          "name": "",
          "type": "uint256"
        }
      ],
      "stateMutability": "view",
      "type": "function"
    },
    {
      "inputs": [],
      "name": "getLotteryState",
      "outputs": [
        {
          "internalType": "enum DLottery.LotteryState",
          "name": "",
          "type": "uint8"
        }
      ],
      "stateMutability": "view",
      "type": "function"
    },
    {
      "inputs": [],
      "name": "getNumWords",
      "outputs": [
        {
          "internalType": "uint256",
          "name": "",
          "type": "uint256"
        }
      ],
      "stateMutability": "pure",
      "type": "function"
    },
    {
      "inputs": [
        {
          "internalType": "uint256",
          "name": "index",
          "type": "uint256"
        }
      ],
      "name": "getPlayer",
      "outputs": [
        {
          "internalType": "address",
          "name": "",
          "type": "address"
        }
      ],
      "stateMutability": "view",
      "type": "function"
    },
    {
      "inputs": [
        {
          "internalType": "bytes",
          "name": "",
          "type": "bytes"
        }
      ],
      "name": "performUpkeep",
      "outputs": [],
      "stateMutability": "nonpayable",
      "type": "function"
    },
    {
      "inputs": [
        {
          "internalType": "uint256",
          "name": "requestId",
          "type": "uint256"
        },
        {
          "internalType": "uint256[]",
          "name": "randomWords",
          "type": "uint256[]"
        }
      ],
      "name": "rawFulfillRandomWords",
      "outputs": [],
      "stateMutability": "nonpayable",
      "type": "function"
    }
  ],
  "bytecode": "0x6101606040526000600360006101000a81548160ff021916908360018111156200002e576200002d620002ae565b5b02179055503480156200004057600080fd5b50604051620016df380380620016df8339818101604052810190620000669190620001a6565b858073ffffffffffffffffffffffffffffffffffffffff1660808173ffffffffffffffffffffffffffffffffffffffff1660601b81525050508460a081815250508573ffffffffffffffffffffffffffffffffffffffff1660c08173ffffffffffffffffffffffffffffffffffffffff1660601b815250508360e081815250508267ffffffffffffffff166101008167ffffffffffffffff1660c01b815250508163ffffffff166101208163ffffffff1660e01b8152505080610140818152505050505050505062000364565b6000815190506200014481620002e2565b92915050565b6000815190506200015b81620002fc565b92915050565b600081519050620001728162000316565b92915050565b600081519050620001898162000330565b92915050565b600081519050620001a0816200034a565b92915050565b60008060008060008060c08789031215620001c657620001c5620002dd565b5b6000620001d689828a0162000133565b9650506020620001e989828a0162000161565b9550506040620001fc89828a016200014a565b94505060606200020f89828a016200018f565b93505060806200022289828a0162000178565b92505060a06200023589828a0162000161565b9150509295509295509295565b60006200024f8262000260565b9050919050565b6000819050919050565b600073ffffffffffffffffffffffffffffffffffffffff82169050919050565b6000819050919050565b600063ffffffff82169050919050565b600067ffffffffffffffff82169050919050565b7f4e487b7100000000000000000000000000000000000000000000000000000000600052602160045260246000fd5b600080fd5b620002ed8162000242565b8114620002f957600080fd5b50565b620003078162000256565b81146200031357600080fd5b50565b620003218162000280565b81146200032d57600080fd5b50565b6200033b816200028a565b81146200034757600080fd5b50565b62000355816200029a565b81146200036157600080fd5b50565b60805160601c60a05160c05160601c60e0516101005160c01c6101205160e01c61014051611306620003d9600039600081816104e3015261053e015260006106800152600061065d0152600061063c015260006106000152600061029a0152600081816101da015261022e01526113066000f3fe60806040526004361061007b5760003560e01c80636b68c03c1161004e5780636b68c03c146101075780636e04ff0d1461013257806391ad27b414610170578063e55ae4e81461019b5761007b565b80631fe543e31461008057806333592fef146100a95780634585e33b146100b357806353a2c19a146100dc575b600080fd5b34801561008c57600080fd5b506100a760048036038101906100a29190610cbc565b6101d8565b005b6100b1610298565b005b3480156100bf57600080fd5b506100da60048036038101906100d59190610bcc565b610407565b005b3480156100e857600080fd5b506100f1610468565b6040516100fe9190610f0d565b60405180910390f35b34801561011357600080fd5b5061011c610477565b6040516101299190610ef2565b60405180910390f35b34801561013e57600080fd5b5061015960048036038101906101549190610c19565b61048e565b604051610167929190610e6f565b60405180910390f35b34801561017c57600080fd5b5061018561053a565b6040516101929190610f0d565b60405180910390f35b3480156101a757600080fd5b506101c260048036038101906101bd9190610c62565b610562565b6040516101cf9190610e10565b60405180910390f35b7f000000000000000000000000000000000000000000000000000000000000000073ffffffffffffffffffffffffffffffffffffffff163373ffffffffffffffffffffffffffffffffffffffff161461028a57337f00000000000000000000000000000000000000000000000000000000000000006040517f1cf993f4000000000000000000000000000000000000000000000000000000008152600401610281929190610e46565b60405180910390fd5b61029482826105a9565b5050565b7f00000000000000000000000000000000000000000000000000000000000000003410156102f2576040517f428067d800000000000000000000000000000000000000000000000000000000815260040160405180910390fd5b60006001811115610306576103056111e6565b5b600360009054906101000a900460ff166001811115610328576103276111e6565b5b1461035f576040517fcd96bae500000000000000000000000000000000000000000000000000000000815260040160405180910390fd5b6000339080600181540180825580915050600190039060005260206000200160009091909190916101000a81548173ffffffffffffffffffffffffffffffffffffffff021916908373ffffffffffffffffffffffffffffffffffffffff1602179055503373ffffffffffffffffffffffffffffffffffffffff167f4c72b57c1ca715219cf2c7be9edc8a3ea19dfb9a76fb7a05e2a8062a027ee97060405160405180910390a2565b60006104216040518060200160405280600081525061048e565b5090508061045b576040517f5e674dba00000000000000000000000000000000000000000000000000000000815260040160405180910390fd5b6104636105d1565b505050565b6000600363ffffffff16905090565b6000600360009054906101000a900460ff16905090565b6000606060008060018111156104a7576104a66111e6565b5b600360009054906101000a900460ff1660018111156104c9576104c86111e6565b5b1490506000806000805490501190506000804711905060007f0000000000000000000000000000000000000000000000000000000000000000600254426105109190610fd1565b11905083801561051d5750825b80156105265750815b801561052f5750805b955050505050915091565b60007f0000000000000000000000000000000000000000000000000000000000000000905090565b600080828154811061057757610576611215565b5b9060005260206000200160009054906101000a900473ffffffffffffffffffffffffffffffffffffffff169050919050565b6105cd816000815181106105c0576105bf611215565b5b6020026020010151610745565b5050565b6001600360006101000a81548160ff021916908360018111156105f7576105f66111e6565b5b021790555060007f000000000000000000000000000000000000000000000000000000000000000073ffffffffffffffffffffffffffffffffffffffff16635d3b1d307f00000000000000000000000000000000000000000000000000000000000000007f000000000000000000000000000000000000000000000000000000000000000060037f000000000000000000000000000000000000000000000000000000000000000060036040518663ffffffff1660e01b81526004016106c1959493929190610e9f565b602060405180830381600087803b1580156106db57600080fd5b505af11580156106ef573d6000803e3d6000fd5b505050506040513d601f19601f820116820180604052508101906107139190610c8f565b9050807f5d09b6924be1682a9a4c201bc3dfb755cd08ec2ec368a81877382246f4a1eb9160405160405180910390a250565b60008080549050826107579190611157565b90506000818154811061076d5761076c611215565b5b9060005260206000200160009054906101000a900473ffffffffffffffffffffffffffffffffffffffff16600160006101000a81548173ffffffffffffffffffffffffffffffffffffffff021916908373ffffffffffffffffffffffffffffffffffffffff1602179055506000600160009054906101000a900473ffffffffffffffffffffffffffffffffffffffff1673ffffffffffffffffffffffffffffffffffffffff164760405161082090610dfb565b60006040518083038185875af1925050503d806000811461085d576040519150601f19603f3d011682016040523d82523d6000602084013e610862565b606091505b5050905061086e610903565b806108a5576040517fdb673f4b00000000000000000000000000000000000000000000000000000000815260040160405180910390fd5b7f5b690ec4a06fe979403046eaeea5b3ce38524683c3001f662c8b5a829632f7df600160009054906101000a900473ffffffffffffffffffffffffffffffffffffffff166040516108f69190610e2b565b60405180910390a1505050565b6000600360006101000a81548160ff02191690836001811115610929576109286111e6565b5b0217905550600067ffffffffffffffff81111561094957610948611244565b5b6040519080825280602002602001820160405280156109775781602001602082028036833780820191505090505b506000908051906020019061098d929190610997565b5042600281905550565b828054828255906000526020600020908101928215610a10579160200282015b82811115610a0f5782518260006101000a81548173ffffffffffffffffffffffffffffffffffffffff021916908373ffffffffffffffffffffffffffffffffffffffff160217905550916020019190600101906109b7565b5b509050610a1d9190610a21565b5090565b5b80821115610a3a576000816000905550600101610a22565b5090565b6000610a51610a4c84610f4d565b610f28565b90508083825260208201905082856020860282011115610a7457610a7361127d565b5b60005b85811015610aa45781610a8a8882610ba2565b845260208401935060208301925050600181019050610a77565b5050509392505050565b6000610ac1610abc84610f79565b610f28565b905082815260208101848484011115610add57610adc611282565b5b610ae88482856110e4565b509392505050565b600082601f830112610b0557610b04611278565b5b8135610b15848260208601610a3e565b91505092915050565b60008083601f840112610b3457610b33611278565b5b8235905067ffffffffffffffff811115610b5157610b50611273565b5b602083019150836001820283011115610b6d57610b6c61127d565b5b9250929050565b600082601f830112610b8957610b88611278565b5b8135610b99848260208601610aae565b91505092915050565b600081359050610bb1816112b9565b92915050565b600081519050610bc6816112b9565b92915050565b60008060208385031215610be357610be261128c565b5b600083013567ffffffffffffffff811115610c0157610c00611287565b5b610c0d85828601610b1e565b92509250509250929050565b600060208284031215610c2f57610c2e61128c565b5b600082013567ffffffffffffffff811115610c4d57610c4c611287565b5b610c5984828501610b74565b91505092915050565b600060208284031215610c7857610c7761128c565b5b6000610c8684828501610ba2565b91505092915050565b600060208284031215610ca557610ca461128c565b5b6000610cb384828501610bb7565b91505092915050565b60008060408385031215610cd357610cd261128c565b5b6000610ce185828601610ba2565b925050602083013567ffffffffffffffff811115610d0257610d01611287565b5b610d0e85828601610af0565b9150509250929050565b610d218161109c565b82525050565b610d3081611005565b82525050565b610d3f81611017565b82525050565b610d4e81611023565b82525050565b6000610d5f82610faa565b610d698185610fb5565b9350610d798185602086016110f3565b610d8281611291565b840191505092915050565b610d96816110ae565b82525050565b6000610da9600083610fc6565b9150610db4826112a2565b600082019050919050565b610dc881611040565b82525050565b610dd78161106e565b82525050565b610de681611078565b82525050565b610df581611088565b82525050565b6000610e0682610d9c565b9150819050919050565b6000602082019050610e256000830184610d27565b92915050565b6000602082019050610e406000830184610d18565b92915050565b6000604082019050610e5b6000830185610d27565b610e686020830184610d27565b9392505050565b6000604082019050610e846000830185610d36565b8181036020830152610e968184610d54565b90509392505050565b600060a082019050610eb46000830188610d45565b610ec16020830187610dec565b610ece6040830186610dbf565b610edb6060830185610ddd565b610ee86080830184610ddd565b9695505050505050565b6000602082019050610f076000830184610d8d565b92915050565b6000602082019050610f226000830184610dce565b92915050565b6000610f32610f43565b9050610f3e8282611126565b919050565b6000604051905090565b600067ffffffffffffffff821115610f6857610f67611244565b5b602082029050602081019050919050565b600067ffffffffffffffff821115610f9457610f93611244565b5b610f9d82611291565b9050602081019050919050565b600081519050919050565b600082825260208201905092915050565b600081905092915050565b6000610fdc8261106e565b9150610fe78361106e565b925082821015610ffa57610ff9611188565b5b828203905092915050565b60006110108261104e565b9050919050565b60008115159050919050565b6000819050919050565b600081905061103b826112a5565b919050565b600061ffff82169050919050565b600073ffffffffffffffffffffffffffffffffffffffff82169050919050565b6000819050919050565b600063ffffffff82169050919050565b600067ffffffffffffffff82169050919050565b60006110a7826110c0565b9050919050565b60006110b98261102d565b9050919050565b60006110cb826110d2565b9050919050565b60006110dd8261104e565b9050919050565b82818337600083830152505050565b60005b838110156111115780820151818401526020810190506110f6565b83811115611120576000848401525b50505050565b61112f82611291565b810181811067ffffffffffffffff8211171561114e5761114d611244565b5b80604052505050565b60006111628261106e565b915061116d8361106e565b92508261117d5761117c6111b7565b5b828206905092915050565b7f4e487b7100000000000000000000000000000000000000000000000000000000600052601160045260246000fd5b7f4e487b7100000000000000000000000000000000000000000000000000000000600052601260045260246000fd5b7f4e487b7100000000000000000000000000000000000000000000000000000000600052602160045260246000fd5b7f4e487b7100000000000000000000000000000000000000000000000000000000600052603260045260246000fd5b7f4e487b7100000000000000000000000000000000000000000000000000000000600052604160045260246000fd5b600080fd5b600080fd5b600080fd5b600080fd5b600080fd5b600080fd5b6000601f19601f8301169050919050565b50565b600281106112b6576112b56111e6565b5b50565b6112c28161106e565b81146112cd57600080fd5b5056fea264697066735822122085255f052c0affbc5dbf287edbd610ee0b48bca0af471a3e7f609783263775bb64736f6c63430008070033",
  "linkReferences": {},
  "deployedLinkReferences": {}
}